:1000000028C1000047C1000045C100000C947012D7
:100010000C945F120C9481123DC100003BC10000A2
:1000200039C1000037C1000035C1000033C10000F4
:1000300031C100002FC100002DC100002BC1000004
:1000400029C1000027C1000025C1000023C1000014
:1000500021C100001FC100001DC100001BC1000024
:1000600019C1000017C1000015C1000013C1000034
:1000700011C100000FC100000DC100000BC1000044
:100080000C94F31507C1000005C1000003C1000076
:1000900001C10000FFC00000FDC00000FBC0000067
:1000A000F9C00000F7C00000F5C00000F3C0000078
:1000B000F1C00000EFC00000EDC00000EBC0000088
:1000C000E9C00000E7C00000E5C000000C94D212B7
:1000D000E1C00000DFC00000DDC00000DBC00000A8
:1000E000D9C00000AD13C413DB13F51314140F149F
:1000F0001E141914084AD73B3BCE016E84BCBFFDC9
:10010000C12F3D6C74319ABD56833DDA3D00C77FE7
:1001100011BED9E4BB4C3E916BAAAABE0000008080
:100120003F05A84CCDB2D44EB93836A9020C50B90F
:10013000918688083CA6AAAA2ABE000000803F003B
:100140006E616E00696E660000407A10F35A00A07E
:10015000724E18090010A5D4E80000E87648170090
:1001600000E40B54020000CA9A3B000000E1F505D0
:10017000000080969800000040420F000000A0861A
:1001800001000000102700000000E803000000004C
:100190006400000000000A000000000001000000F0
:1001A00000002C76D888DC674F0823DFC1DFAE590A
:1001B000E1B1B796E5E3E453C63AE651997696E89D
:1001C000E6C28426EB898C9B62ED407C6FFCEFBC21
:1001D0009C9F40F2BAA56FA5F490055A2AF75C934C
:1001E0006B6CF9676DC11BFCE0E40D47FEF520E682
:1001F000B500D0ED902E0300943577050080841E65
:10020000080000204E0A000000C80C333333330FBF
:10021000986E12831141EF8D2114893BE65516CF5C
:10022000FEE6DB18D1844B381BF77C1D901DA4BB68
:10023000E424203284725E228100C9F124ECA1E51D
:100240003D27CFEBDAE188818230F0F30E941A1566
:10025000FACF11241FBECFEFD1E2DEBFCDBF00E049
:100260000CBF18E0A0E0B2E0E2E3F1E600E00BBF73
:1002700002C007900D92AC34B107D9F72BE1ACE482
:10028000B8E001C01D92A034B207E1F70E949611B8
:100290000C949730B5CE0E9465268CE30E946926A7
:1002A00080E00E948E2680E70E948E260E94B6265D
:1002B0008CE30E94692681E00E948E2680EA0E94DB
:1002C0008E260E94B6268CE30E94692682E00E9458
:1002D0008E2680E00E948E260C94B6260895EF921A
:1002E000FF920F931F93CF93DF937C01EB018A0161
:1002F0008CE30E94692683E00E948E260E94B62627
:100300008DE30E9469260E94A026F7011082818356
:100310000E94A026F70120813181282B3183208380
:100320000E94A026F801108281830E94A026F80175
:1003300020813181282B318320830E94A0261882BE
:1003400089830E94AB2628813981282B3983288311
:100350000E94B626DF91CF911F910F91FF90EF90F1
:10036000089580B380BBECE7F0E08081806C8083EF
:10037000EAE7F0E080818068808380818460808308
:100380000895ECE7F0E080839081906C9083EAE739
:10039000F0E0908190649083908196FDFDCF209154
:1003A000780090917900E82FF0E0319730E4939F46
:1003B000C0011124922F96959695892BFE2FEE273A
:1003C000E80FF11DE050FE4F80810895CF92DF923B
:1003D000EF92FF92CF93DF93EC01C880D980EA803F
:1003E000FB802BED3FE049E450E4C701B6010E94D9
:1003F000862918166CF42BED3FE049EC50E4C70158
:10040000B6010E940F27688379838A839B8316C075
:100410002BED3FE049E450ECC701B6010E94D6271E
:10042000882364F42BED3FE049EC50E4C701B601AA
:100430000E941027688379838A839B8388819981AE
:10044000AA81BB81BC01CD019F772BED3FE049E440
:1004500050E40E94862918160CF4BFCFDF91CF918B
:10046000FF90EF90DF90CF900895CF92DF92EF92C0
:10047000FF920F931F93CF93DF9300D000D0CDB79F
:10048000DEB77B016A0126E0EEE0F6E0DE011196C0
:1004900001900D922A95E1F7BE016F5F7F4F0E9498
:1004A0002B2F009769F110E001E0112319F01130B2
:1004B000B9F01CC00E942B2EBC01990F880B990B20
:1004C0000E947828F7016083718382839383BE0141
:1004D0006F5F7F4F80E090E00E942B2F009781F0AC
:1004E0000E942B2EF60191838083102FBE016F5F37
:1004F0007F4F80E090E00E942B2F1F5F0097A9F6AE
:1005000026960FB6F894DEBF0FBECDBFDF91CF9118
:100510001F910F91FF90EF90DF90CF900895CF93B0
:10052000DF93EC010E942F2280914E0890914F089A
:10053000892B31F483E598E090934F0880934E081F
:100540002091500830915108CE01820F931F8F3FA8
:1005500041E1940770F42817390770F4C0914E08F0
:10056000D0914F08C20FD31F909351088093500829
:1005700005C0C0E0D0E002C0C0E0D0E00E9435225B
:10058000CE01DF91CF9108950895EF92FF920F93DE
:100590001F93CF93DF93EC01E42E2898862F806879
:1005A0000E94081DEE20B1F00FEF0E0D10E00F5F5E
:1005B0001F4F0C0F1D1FF12C80E00E94081D8F3F64
:1005C00009F4F3948993C017D107B1F7EF1004C071
:1005D00085E003C085E001C080E0289ADF91CF91DB
:1005E0001F910F91FF90EF900895CF93DF93EC014F
:1005F0002898862F80680E94081D80E00E94081DB0
:10060000982F289A8F3F11F485E001C080E09883ED
:10061000DF91CF910895CF93DF931F921F92CDB7B3
:10062000DEB7E7EFFAE181E0808324EF31E0328347
:10063000218322E836E03483238320E931E03683C6
:100640002583178210868187828720E130E03487F6
:1006500023872DE030E03687258722E330E0308B9A
:100660002787118A128A838B848B88EB9BE0968B79
:10067000858B8AE090E0908F878B118E1092121BF1
:100680001092111B1092141B1092131B0E94FA1C43
:10069000209A289A198220E137E289818F5F898325
:1006A00021503109D1F76FE0CE0102969EDF8A8199
:1006B0008936C9F780E00F900F90DF91CF910895B0
:1006C0000F931F93CF93DF931F921F92CDB7DEB787
:1006D0008C0142E0CE01019658DF2A8130E0322FB2
:1006E00022279981292BF801318320830F900F90C5
:1006F000DF91CF911F910F910895CF93C62F289826
:100700000E94081D8C2F0E94081D289A80E0CF911E
:1007100008951F93CF93DF931F921F92CDB7DEB73B
:10072000198279DF182F19828091001B813009F01E
:1007300083C08091061B9091071B8436910541F080
:10074000883C910541F0C29741F483E0898305C05C
:1007500082E0898302C081E089838091021B9091AD
:10076000031B8430910531F08830910539F00297F0
:1007700049F40BC089818860898307C089818C60B6
:10078000898303C08981846089838091041B90914F
:10079000051B803A21E09207C1F170F48A3191057E
:1007A00021F118F40D97E9F028C08433910509F17F
:1007B000803D910531F121C082302DE0920789F111
:1007C00040F4813423E0920721F18C37964029F1DF
:1007D00014C084302AE1920741F18231944349F1F7
:1007E0000CC089818061898327C089818062898367
:1007F00023C08981806389831FC089818064898344
:100800001BC089818065898317C08981806689833F
:1008100013C08981806789830FC08981806889833B
:100820000BC089818069898307C08981806A898337
:1008300003C08981806B8983698180E15EDF63E128
:10084000CE010196D2DE99819F7799838091011B19
:10085000813011F490689983698183E14EDF1982B8
:100860008091F71A813009F05BC08091F81A90915D
:10087000F91A853F9105C1F020F48D37910549F0B3
:1008800011C0843F21E0920739F0883E934039F04F
:1008900009C082E0898308C084E0898305C088E0BC
:1008A000898302C08CE089838091FA1A9091FB1AA7
:1008B000803D910531F148F48A319105B1F08433DE
:1008C0009105B9F00D97C9F40CC0813423E092076B
:1008D00001F18C3726E0920701F1803A914069F4EA
:1008E00014C08981806189831BC08981806289836A
:1008F00017C089818063898313C08981806489835B
:100900000FC08981806589830BC089818066898356
:1009100007C089818067898303C089818068898352
:10092000698181E1EADE6FE0CE0102965EDE812F11
:100930000F900F90DF91CF911F910895CF93DF9388
:100940001F921F92CDB7DEB76AE2CE010196B8DEE4
:100950008823A9F0853051F48091111B9091121BCE
:1009600001969093121B8093111B09C08091131B59
:100970009091141B01969093141B8093131B8981F3
:100980009A810F900F90DF91CF910895CF92DF92CF
:10099000EF92FF92BC01990F880B990B0E94782867
:1009A00023E23BED49E75DE30E9491296B017C0165
:1009B0008091021B9091031B96958795BC0180E066
:1009C00090E00E9476289B01AC01C701B6010E940D
:1009D000912920E030E04AE754E40E94DD27FF90AF
:1009E000EF90DF90CF900895A9DFD0CF0895CF93F7
:1009F000DF931F921F92CDB7DEB762E2CE01019660
:100A00005FDE8823A9F0853051F48091111B90910D
:100A1000121B01969093121B8093111B09C08091A9
:100A2000131B9091141B01969093141B8093131B1E
:100A300089819A810F900F90DF91CF910895CF9384
:100A4000DF931F921F92CDB7DEB766E2CE0101960B
:100A500037DE8823A9F0853051F48091111B9091E5
:100A6000121B01969093121B8093111B09C0809159
:100A7000131B9091141B01969093141B8093131BCE
:100A800089819A810F900F90DF91CF910895CF9235
:100A9000DF92EF92FF92CF93FC014091F81A5091B0
:100AA000F91A453F5105B1F09A01A5E2B6E00E945E
:100AB000082E481B590B56954795480F591F00247F
:100AC000440F551F001C440F551F001C452F502D6F
:100AD000C42F01C0C2E0BF01FF0F880B990B0E9419
:100AE000782820E030E04CE850E40E9491296B0126
:100AF0007C016C2F70E080E090E00E9478289B01E0
:100B0000AC01C701B6010E94912920E030E04AE71C
:100B100054E40E94DD27CF91FF90EF90DF90CF90BB
:100B2000089565DFB4CF08958ADFB1CF0895EAE074
:100B3000F1E080818760808308958230910531F4EF
:100B4000EBE0F1E08081846080830895813091053D
:100B500031F4EBE0F1E08081826080830895892B9D
:100B600029F4EBE0F1E08081816080830895823098
:100B7000910531F4EBE0F1E080818B7F8083089573
:100B80008130910531F4EBE0F1E080818D7F80834D
:100B90000895892B29F4EBE0F1E080818E7F80833A
:100BA00008958230910539F4EBE0F1E0908184E022
:100BB0008927808308958130910539F4EBE0F1E0D5
:100BC000908182E0892780830895892B31F4EBE0BE
:100BD000F1E0908181E0892780830895FC010396EC
:100BE000928381832FEF3FEF348323839683858322
:100BF0009087878310820895FC01118610860895DE
:100C0000CF93DF939C01FB01DC011196CD91DC9128
:100C10001297D383C2838C819D81958384838C8139
:100C20009D81DC0113967C936E9312977D836C8378
:100C300031872087F90180818F5F8083DF91CF9199
:100C40000895CF93DF93EB01488159814F3F2FEFF8
:100C5000520721F4FC01A781B0850DC0DC01139679
:100C600001C0DF011296ED91FC9113972081318133
:100C700042175307B0F71296ED91FC911397FB833F
:100C8000EA83D583C483BD83AC831396DC93CE9370
:100C9000129799878887FC0120812F5F2083DF913D
:100CA000CF910895CF93DF93FC01A085B185C281D8
:100CB000D381848195819D838C83C481D5818281F8
:100CC00093819B838A831196CD91DC911297CE17E5
:100CD000DF0731F48C819D8112969C938E9311973E
:100CE000118610868C9181508C93DF91CF9108955D
:100CF000CF93DF93CDB7DEB76A970FB6F894DEBF18
:100D00000FBECDBFFE01319686E0DF011D928A95B0
:100D1000E9F7649906C082E090E00FDF81E090E09F
:100D20000CDF84E196E00E94F92F00E010E00F2E26
:100D3000F4E1BF2EF02DAA24A3940F2EF0ECCF2EB9
:100D4000FEEFDF2EF02D6894EE24E6F8FF24F394F6
:100D50008091801A882309F4A0C020E04FEF5FEF54
:100D600060E070E080911E1B90911F1B0E94341B5D
:100D7000813071F70E942F22F894E0E2FBE1DE015E
:100D800017968B2D01900D928A95E1F778940E9429
:100D9000352265E276E0CE0107960E94422F892B2C
:100DA00021F088E296E00E94FC266BE276E0CE011C
:100DB00007960E94422F892BC9F1AE014B5F5F4F0E
:100DC000BE016F5F7F4FCE0107964FDB8D819E8105
:100DD0008134B1E09B071CF0FE82ED8205C0803CAF
:100DE0009E4F14F4DE82CD8225E33AEF4EE85CE3B9
:100DF00069817A818B819C810E94912969837A83A0
:100E00008B839C83CE010196E1DA84EF91E00E940E
:100E1000C61F20E044E650E0BE016F5F7F4F809127
:100E2000871A9091881A0E94C91792CF6FE276E0D4
:100E3000CE0107960E94422F892BE1F087E396E0CE
:100E40000E94F92FA0927F1A81E090E076DE1E8248
:100E50001D8219821A821B821C8220E044E650E027
:100E6000BE016F5F7F4F8091871A9091881A0E9410
:100E7000C9176ECF65E476E0CE0107960E94422F37
:100E8000892B09F465CF8DE496E00E94F92F81E06B
:100E900090E06DDE10927F1A5BCF649950C0809114
:100EA000801A81114CC020E040E050E060E070E02A
:100EB00080911E1B90911F1B0E94341B813001F5F5
:100EC0000E942F22F894E0E2FBE1DE0117968B2DC1
:100ED00001900D928A95E1F778940E9435226DE594
:100EE00076E0CE0107960E94422F892B49F08DE5CE
:100EF00096E00E94F92FA092801A81E090E037DE00
:100F000081E090E01ADE0233110518F081E090E0F4
:100F100048DE083E83E0180758F082E090E00DDEDE
:100F20000E940A2781E090E03CDE00E010E010CF54
:100F30000F5F1F4F81E090E00E94C61F09CF649BA6
:100F400007CF82E090E0F9DD88EC90E00E94C61FB8
:100F500082E090E00CDE88E097E00E94C61FF8CEA9
:100F6000CF93DF93CDB7DEB729970FB6F894DEBFE6
:100F70000FBECDBF85E696E00E94F92F198200E0F2
:100F8000BB24B39410E06894FF24F2F86894EE2434
:100F9000E2F80F2EF3E07F2EF02D0F2EFDEC4F2EFA
:100FA000F02D0F2EF5E05F2EF02D07C0F72C05C0B9
:100FB000F72C03C0F72C01C0F72C9091801A9130C8
:100FC00009F015C190917F1A911111C10E947023EF
:100FD0009B838A8320E046E950E0BE016F5F7F4F2C
:100FE0008091851A9091861A0E94341B813009F0F5
:100FF00066C08981882321F0833008F05FC02DC04E
:101000001B9D102D1124812F0E94D11C68EC70E0D3
:10101000CE0102960E94231E81E0B3D9A82E80E063
:10102000B0D9872DAED982E0ACD9682E20E048E255
:1010300050E060E070E08091341B9091351B0E947D
:10104000341B60E070E08091341B9091351B0E944E
:101050009A1901E0BB24B39467C0149D112D11248B
:1010600016951695812F880F880F810F0E94D11C2D
:1010700068EC70E0CE0102960E94231E81E081D9C7
:10108000A82E80E07ED9872D7CD982E07AD9682E7F
:1010900020E048E250E060E070E08091341B9091E5
:1010A000351B0E94341B60E070E08091341B9091EE
:1010B000351B0E949A19B52C00E03AC000E0B19EA1
:1010C000802D11240E94D11C68EC70E0CE010296A4
:1010D0000E94231E81E055D9A82E80E052D9872D89
:1010E00050D982E04ED9682E20E048E250E060E01E
:1010F00070E08091341B9091351B0E94341B60E09E
:1011000070E08091341B9091351B0E949A190B302E
:1011100048F08981811106C08EE696E00E94F92F81
:1011200001E006C0002321F08981811101C00F5F19
:101130008B2C912C189D6001199DD00C11248FE1EE
:10114000C816D1042CF08CE3C816D104B4F0A62C38
:1011500081E0A81212C01C821D821E821F82198685
:10116000188620E044E650E0BE016C5F7F4F80911E
:10117000871A9091881A0E94C9178BE5C816D10466
:1011800094F484E0F8120FC089818330E8F41F5F83
:10119000189D6001199DD00C11248AE5C816D10450
:1011A0000CF004CF1BC01C141D048CF583E0F81256
:1011B00029C08981833008F000CF1150189D60014B
:1011C000199DD00C11240AC08AE5C816D1040CF070
:1011D000EFCE04C084E0F81609F4ECCE1C141D0414
:1011E0000CF4EBCE83E0F812E8CEFE2CE6CE80E0E5
:1011F0000E94D11C84E690E00E94C61F00E010E02F
:10120000FE2CDBCE8AE5C816D10424F7D6CE8AE5BB
:10121000C816D1043CF384E0F812E4CFCDCECF93CE
:10122000DF93CDB7DEB7AE970FB6F894DEBF0FBE33
:10123000CDBF86E796E00E94F92F86E0FE01319649
:10124000DF01282F1D922A95E9F73696DF011D92BE
:101250008A95E9F71D861E8618A21F8E19A21AA26A
:101260001BA21CA21EA21DA21BA61CA61DA61EA67A
:101270001AA619A618A61FA21C8E1D8E1E8E00E08F
:1012800011E022242394332433948091801A8823FC
:1012900009F43AC320E04FEF5FEF60E070E0809127
:1012A000181B9091191B0E94341B813071F720E0AC
:1012B0004FEF5FEF60E070E08091341B9091351B41
:1012C0000E94341B70907A1A60907B1A50907C1A9E
:1012D00040907D1AE090781AF090791AC090761AB2
:1012E000D090771A60E070E08091341B9091351BAC
:1012F0000E949A1920E040E050E0BE016F5F7F4FEE
:101300008091871A9091881A0E94341B813009F0CD
:10131000D9C020E044E150E0BE016F5F7F4F809173
:10132000871A9091881A0E94341B89809A80AB801A
:10133000BC8020E030E040E050E0C501B4010E94F4
:10134000D627882309F120E030E040E050E0C501D5
:10135000B4010E94862918161CF484E08D8702C00F
:1013600083E08D87A5019401672D762D852D942D21
:101370000E94102769837A838B839C8379A26AA257
:101380005BA24CA2212C1BC01D861F8620E040E0E2
:1013900050E0BE01635F7F4F8091891A90918A1A55
:1013A0000E94C91720E040E050E0BE01615F7F4F1E
:1013B0008091831A9091841A0E94C917232C8D81E1
:1013C0009E81009781F114F03E8602C0B2E0BE8794
:1013D000EE9CC001EF9C900D900D112424E630E0AE
:1013E000B9010E94ED2D4B01CC9CC001CD9C900D0C
:1013F000900D1124B9010E94ED2D860E971E092C27
:10140000000CAA08BB08C501B4010E9478280E94FC
:10141000FE290E94452878A36F8FDAA6C9A6F8A6F0
:10142000EFA210E01BC01E861F8620E040E050E0C7
:10143000BE01625F7F4F8091891A90918A1A0E9443
:10144000C91720E040E050E0BE01615F7F4F80910E
:10145000831A9091841A0E94C917132D8D819E8141
:10146000892BD9F420E030E040E050E069817A81B6
:101470008B819C810E94D62781111AC08EE696E04E
:101480000E94F92F1EA21DA21BA61CA61DA61EA609
:101490001C8E1D8E1E8E00E015C01EA21DA21BA656
:1014A0001CA61DA61EA61C8E1D8E1E8E00E00AC048
:1014B0001EA21DA21BA61CA61DA61EA61C8E1D8E4E
:1014C0001E8E00E0211021C129A13AA14BA15CA1EF
:1014D00069817A818B819C810E940F276F8B788F25
:1014E000898F9A8FCE0147960E94E60120E030E076
:1014F00040E251E46F89788D898D9A8D0E94DD27B5
:101500009B01AC0169A17AA18BA19CA10E9410272B
:1015100069A37AA38BA39CA3272D362D452D542D8B
:101520000E940F27DC01CB01BF778F839887A987A3
:10153000BA87CE0107960E94E601272D362D452D4C
:10154000542D69817A818B819C810E940F276B8B3E
:101550007C8B8D8B9E8BCE0143960E94E6018B89FE
:101560009C89AD89BE89BC01CD019F7724EF3CE603
:1015700046E55DE30E94D627181674F11D8680E0CB
:1015800090E0A0E0B0E089839A83AB83BC831F86A0
:1015900020E040E050E0BE01635F7F4F8091891AF8
:1015A00090918A1A0E94C917113081F420E040E01E
:1015B00050E0BE01615F7F4F8091831A9091841A41
:1015C0000E94C9178EE696E00E94F92F1C8E1D8E90
:1015D0001E8E00E0232C59CE2BA53CA54DA55EA563
:1015E000672D762D852D942D0E940F276F87788B80
:1015F000898B9A8BCE010F960E94E6018F85988980
:10160000A989BA89BC01CD019F772FE832EC45EF5B
:101610005CE30E94DD274B015C016F87788B898B2F
:101620009A8BCF80D884E984FA84A70196016C8DC7
:101630007D8D8E8D902F0E9410276C8F7D8F8E8FC9
:10164000092F20E030E048EC51E40E9486298823ED
:101650002CF01C8E1D8E28EC2E8F01E4A701960124
:101660006C8D7D8D8E8D902F0E941027A501940189
:101670000E940F27D62EC72EF82EE92E20E030E04C
:1016800048EC51E40E94862918168CF020E030E0E6
:1016900040E050E06D2D7C2D8F2D9E2D0E94D62791
:1016A00088237CF4D12CC12CF12CE12C0AC0D12C44
:1016B000C12C0F2EF8ECFF2EF02D0F2EF1E4EF2EA3
:1016C000F02D6D2D7C2D8F2D9E2D0E944A286B8F25
:1016D00020E040E050E0BE01635F7F4F8091891AB7
:1016E00090918A1A0E94C91720E040E050E0BE01A4
:1016F000655E7F4F8091831A9091841A0E94C9176A
:101700007BA66CA65DA64EA6C0CD1111BECD8FA145
:1017100098A58E199F096AE070E00E94ED2DFB01EB
:1017200089A59AA58C199D096AE070E00E94ED2DAB
:101730009B01ED80FE80FF201CF4F194E194F10800
:10174000C7014F8D58A1841B950B6AE070E00E9481
:10175000ED2D8F8D98A1860F971F98A38F8FEE9FE9
:101760004001EF9F900C900C1124229FC001239FF9
:10177000900D900D1124880E991E092C000CAA08BA
:10178000BB08C501B4010E9478280E94FE292B01E4
:101790003C01AF8DB8A1BD01BB0F880B990B0E9416
:1017A0007828A30192010E940F270E9445284B012F
:1017B0005C017C876B87B701FF0C880B990B0E943B
:1017C0007828A30192010E940F270E9445286230C9
:1017D000710534F51E861E821D821F868EE696E0F8
:1017E0000E94F92F20E040E050E0BE01625F7F4F91
:1017F0008091891A90918A1A0E94C91720E040E0CE
:1018000050E0BE01615F7F4F8091831A9091841AEE
:101810000E94C9171C8E1D8E1E8E00E0132D35CD23
:101820002DA13EA1B901330F880B990B0E94782896
:101830009B01AC01C301B2010E940F272FE832ECDB
:1018400045EF5CE30E94DD276B017C01B401092CAC
:10185000000C880B990B0E9478289B01AC016C8DC1
:101860007D8D8E8D902F0E9410276C8F7D8F8E8F97
:10187000092F20E030E048EC51E40E9486298823BB
:101880002CF01C8E1D8E38EC3E8F01E4880C991CC8
:10189000880C991C6C8D7D8D8E8D902F0E94452813
:1018A0005401A60EB71EC701B6010E944528A61A0C
:1018B000B70A12F4A12CB12C4AE1A416B10424F009
:1018C0000F2EF9E1AF2EF02DAF8620E040E050E082
:1018D000BE01625F7F4F8091891A90918A1A0E949F
:1018E000C91720E040E050E0BE01615F7F4F80916A
:1018F000831A9091841A0E94C917C301B2010E94F1
:1019000045287EA36DA3C1CC1E8620E048EC50E0A4
:10191000BE01625F7F4F8091891A90918A1A0E945E
:10192000C91784E690E00E94C61F132D232CADCC6E
:10193000CF93DF93CDB7DEB7E1970FB6F894DEBF54
:101940000FBECDBF19821A821B821C8288E896E0E6
:101950009F938F930E94E62F1F9288E28F9385E9D1
:1019600096E09F938F930E94E62F8AE996E00E946B
:10197000F92F0E9470239E838D830F900F900F90FC
:101980000F900F900F901DA61EA61FA618AA1D8EC1
:101990001E8E1F8E18A2198E1A8E1B8E1C8E1D8AEB
:1019A0001E8A1F8A188E198A1A8A1B8A1C8A612C21
:1019B000712C412C512C212C312C68E270E0CE018D
:1019C00005960E94231E8091801A882309F42FC255
:1019D000232D4FE050E060E070E080911A1B909161
:1019E0001B1B0E94341B8091721A9091731A9AA744
:1019F00089A7A091741AB091751ABCA7ABA760E033
:101A000070E080911A1B90911B1B0E949A1969A586
:101A10007AA564197509072E000C880B990B0E9492
:101A200078282DE33CE244E55EE30E9491296B01B6
:101A30007C016BA57CA566197709072E000C880B25
:101A4000990B0E9478282DE33CE244E55EE30E9476
:101A500091294B015C019B01AC01C701B6010E94B9
:101A6000102720E030E040E05FE30E94912969A365
:101A70007AA38BA39CA3A7019601C501B4010E9480
:101A80000F2720E030E047E553E40E94DD274B01BB
:101A90005C014AD8298D3A8D4B8D5C8D0E940F27B1
:101AA0006B017C019F7720E030E040E251E40E942E
:101AB000D62788236CF0B1E0B9AB1AE909E90F2EFB
:101AC000F9E57F2EF02D0F2EFFE36F2EF02D05C0D0
:101AD00039AA10E000E0712C622C212F302F472D05
:101AE000562D60E070E080E89FE30E940F27A5017B
:101AF00094010E9491294B015C0124ED32E047E3FF
:101B00005AE3C701B6010E9491299B01AC01612FE4
:101B1000702F872D962D0E9491299B01AC01C50144
:101B2000B4010E9410276B017C0149805A806B80B0
:101B30007C8020E030E040E05FE30E949129A30137
:101B400092010E9410274B015C010E94DA2729A113
:101B50003AA14BA15CA10E9491299B01AC01F9899A
:101B6000EA89BB89AC896F2F7E2F8B2F9A2F0E9419
:101B700010276DA37EA38FA398A7698B7A8B8B8B7D
:101B80009C8BC501B4010E94F42929A13AA14BA163
:101B90005CA10E9491299B01AC01FD89EE89BF895E
:101BA000A88D6F2F7E2F8B2F9A2F0E941027862EA5
:101BB000972EA82EB92E6D8B7E8B8F8B988FA301BD
:101BC0009201C701B6010E94102769837A838B8333
:101BD0009C8320E735E748E05BE36DA57EA58FA5F4
:101BE00098A90E9410272B013C01AE01455F5F4F71
:101BF000BE01635F7F4FCE010F960E946F016F851C
:101C00007889655F7F4F788B6F870D851E850E54B1
:101C100011091E870D87072E000C880B990B0E9457
:101C200078286B017C01B801110F880B990B0E9479
:101C30007828A70196010E9483272D8D3E8D4F8D18
:101C400058A10E940F2729813A814B815C810E9413
:101C50000F276F83788789879A87CE0107960E941E
:101C6000E6018F819885A985BA85BC01CD019F7752
:101C700020EB3BEF4EE05DE30E94862918164CF402
:101C800081E090E00E94B70510E000E0F12CE22C2A
:101C90002EC089A9811123C020E030E040E0522D00
:101CA00069A17AA18BA19CA10E94D627811117C09E
:101CB00021E230EB42EB5EE3C301B2010E94102748
:101CC0009B01AC01C301B2010E94DD27162F072F33
:101CD000F82EE92E81E090E00E949D0508C081E089
:101CE00090E00E94B70510E000E0F12CE22C2F817B
:101CF000388549855A85612F702F8F2D9E2D0E9422
:101D000091299B01AC0169817A818B819C810E9420
:101D1000102769837A838B839C83CE0101960E946E
:101D2000E601212F302F4F2D5E2D60E070E080E81E
:101D30009FE30E940F27A30192010E9491296DA7A2
:101D40007EA78FA798AB8091701A9091711A8230FC
:101D5000910521F51092711A1092701A8C818F934F
:101D60008B818F938A818F9389818F93BF92AF925A
:101D70009F928F9298A59F93AFA1AF93BEA1BF935F
:101D80008DA18F93ADE9B6E0BF93AF930E94E62F8C
:101D90000FB6F894DEBF0FBECDBF05C0019690937D
:101DA000711A8093701A232D4FE050E060E070E0CC
:101DB0008091341B9091351B0E94341B89819A813C
:101DC000AB81BC8180937A1A90937B1AA0937C1A82
:101DD000B0937D1A5DA14EA13FA128A5652F742F58
:101DE000832F922F0E9445287093791A6093781A56
:101DF000682D792D8A2D9B2D0E9445287093771A86
:101E00006093761A60E070E08091341B9091351BEE
:101E10000E949A1960E070E08091181B9091191B44
:101E20000E949A196BA47CA449A45AA4C6CD05E6C5
:101E300010E0C12CD12CE12CF22C0E9494059B01C6
:101E4000AC016C2D7D2D8E2D9F2D0E941027C62E4E
:101E5000D72EE82EF92E0150110979F7AE01495F0E
:101E60005F4FBE01655F7F4FCE010D960E946F01EF
:101E70006D857E85655F7F4F0B851C850E5411092E
:101E800080E090E0A0E0B22D89839A83AB83BC838D
:101E9000072E000C880B990B0E9478284B015C01DF
:101EA000B801110F880B990B0E947828A5019401A5
:101EB0000E9483276D8F7E8F8F8F98A320E030E064
:101EC0004AEC52E46C2D7D2D8E2D9F2D0E94DD2736
:101ED000698F7A8F8B8F9C8F3D8A3E8A3F8A388E9E
:101EE000398A3A8A3B8A3C8A68CDCF93DF93CDB753
:101EF000DEB765970FB6F894DEBF0FBECDBF19826F
:101F00001A821B820E9470239D838C838DEA96E047
:101F10000E94F92F1F821E82198618861A861B8638
:101F2000612C712C212C312C10E0412C512C1B8A5E
:101F30001A8AA12C5D8A4C8AD12E430164E170E09B
:101F4000CE0104960E94231EF8944091811A1092AB
:101F5000811AB090821A1092821A7894BE016A5F38
:101F60007F4F8A857FD44B2DBE01685F7F4F8B8565
:101F700090D420E041E050E060E070E080911A1BD6
:101F800090911B1B0E94341B8E819F819093731A2A
:101F90008093721A888599859093751A8093741A24
:101FA00060E070E080911A1B90911B1B0E949A19AF
:101FB0008091801A882309F4ACC120E040E050E011
:101FC000BE016E5F7F4F8091891A90918A1A0E949C
:101FD000341B20E040E050E0BE016D5F7F4F8091F8
:101FE000831A9091841A0E94341B8A8199818917DF
:101FF000A1F02E813F813B8B2A8B288539853D8B33
:102000002C8B898320E040E050E0BE016F5F7F4F62
:102010008091851A9091861ABCD7EE80FF80970137
:102020008A899B89281B390B08851985A8018C8909
:102030009D89481B590B8B81811102C01B8204C0F2
:102040008A3110F099E19B83CB808C2D90E06B2D31
:102050006D196C01C61AD10867FDD394CA01992382
:1020600024F488279927841B950BA901332324F492
:1020700044275527421B530B841B950B9C0122F4CC
:1020800022273327281B390BC9018C0C9D1C220EDB
:10209000331E2FEF2216310421F01CF022242A9443
:1020A0003A2C3FEF8316910421F01CF088248A9487
:1020B0009A2CC80CD91CCC0CDD1C9C01220F331FA0
:1020C000880F991F880F991F880F991F820F931FE0
:1020D0008C0D9D1D9101280F391F398B288B809104
:1020E0006E1A90916F1AB701681B790B072E000CBE
:1020F000880B990B0E9478282DE33CE244E55EE3CF
:102100000E9491296C877D878E879F8780916C1AAA
:1021100090916D1AB801681B790B072E000C880B83
:10212000990B0E9478282DE33CE244E55EE30E948F
:1021300091292B013C01F0926F1AE0926E1A1093D4
:102140006D1A00936C1A9B01AC016C857D858E85A0
:102150009F850E94102720E030E040E05FE30E946E
:1021600091299B01AC016091681A7091691A809164
:102170006A1A90916B1A0E9410276093681A7093E4
:10218000691A80936A1A90936B1A2C853D854E8547
:102190005F85C301B2010E940F2720E030E047E5D0
:1021A00053E40E94DD279B01AC016091641A709199
:1021B000651A8091661A9091671A0E9410276093A1
:1021C000641A7093651A8093661A9093671A0E9436
:1021D00094052FE93CE34CE25FE30E940F2724EDD6
:1021E00032E047EB59E30E9491299B01AC016091D9
:1021F000601A7091611A8091621A9091631A0E941C
:1022000010276093601A7093611A8093621A9093FA
:10221000631A0E94F4042AE037ED43EA5CE30E946B
:102220000F272B013C0160935C1A70935D1A809319
:102230005E1A90935F1A9F772AE037ED43E25CE3E2
:102240000E948629181644F52091581A3091591A7F
:1022500040915A1A50915B1AC301B2010E94102793
:102260009B01AC016093581A7093591A80935A1AC3
:1022700090935B1A6091541A7091551A8091561A76
:102280009091571A0E9410276093541A7093551A10
:102290008093561A9093571A8091521A9091531A1C
:1022A0008330910549F41092531A1092521A0E94E9
:1022B000F4040E94910505C001969093531A8093EF
:1022C000521A688979896F3F710519F014F06FEF20
:1022D0007A2D3FEFC316D10421F01CF0CC24CA9410
:1022E000DA2CA601DD2014F440E050E0772314F44A
:1022F00060E070E0CE010B966C019E01265F3F4FBF
:10230000790100E010E020E030E08A810AD2DB2C85
:1023100015CEFDD101D212CEF89489EB96E00E9441
:10232000FC2680E090E00E94D105FBCFCF93DF93A5
:10233000CDB7DEB728970FB6F894DEBF0FBECDBF7E
:102340000E94970580E090E00E949D050E94DA2699
:1023500083EC96E00E94FC2684B742E0BE016F5FEA
:102360007F4F90E00E94832FCE0101960E94FC26B1
:1023700089E296E00E94FC2614BE80E00E94E11CE7
:102380000E94B1016BD18FED96E00E94FC260E9465
:1023900089038BEE96E00E94FC260E944B0140E0F0
:1023A00061E082E022D490938A1A8093891A40E0F7
:1023B00066E081E01AD49093881A8093871A40E0EF
:1023C00061E081E012D49093861A8093851A40E0F0
:1023D00061E082E00AD49093841A8093831A81E0AA
:1023E00056D49093351B8093341B81E050D4909346
:1023F0001D1B80931C1B81E04AD490931B1B809370
:102400001A1B43E060E081E0F0D39093191B8093A6
:10241000181B43E060E081E0E8D390931F1B80939A
:102420001E1BA12CB12CC12CD12CE12CF12C04E0D1
:1024300020E030E044EF51E06BEF76E085E79FE08D
:102440000E940F1D03E020E030E044EF51E064E023
:1024500077E088E796E00E940F1D02E020E030E080
:1024600044EF51E069E077E08FE099E00E940F1DB2
:1024700005E020E030E044EF51E061E177E088E9F9
:102480009CE00E940F1D01E020E030E044EF51E0AD
:1024900069E177E080EB97E00E940F1D789480E07F
:1024A00090E00E94B7058FE197E00E94FC260E9411
:1024B0004B21F89488E397E00E94FC26FACF1F9204
:1024C0000F920FB60F9211248F938091811A8F5F14
:1024D0008093811A8F910F900FBE0F901F901895C7
:1024E0001F920F920FB60F9211248F938091821A30
:1024F0008F5F8093821A8F910F900FBE0F901F9065
:1025000018951F920F920FB60F9211240BB60F92CF
:102510002F933F934F935F936F937F938F939F93EB
:10252000AF93BF93EF93FF93649909C082E090E06B
:102530000E949D0581E090E00E949D0518C01092C8
:10254000801A10927F1A82E090E00E94B70581E025
:1025500090E00E94B70580E090E00E94B70560E03F
:1025600070E080911E1B90911F1B0E94091B60E070
:1025700070E08091181B9091191B0E94091BFF911C
:10258000EF91BF91AF919F918F917F916F915F91EB
:102590004F913F912F910F900BBE0F900FBE0F9058
:1025A0001F9018951F920F920FB60F9211240BB621
:1025B0000F922F933F934F935F936F937F938F93DC
:1025C0009F93AF93BF93EF93FF93E091171BF0E0BE
:1025D0008091D600E05EF44E8083E091171BF0E01E
:1025E000E05EF44E80818B3729F41092171B81E056
:1025F00080937E1A80917E1A8823E9F0E091171B60
:10260000F0E0E05EF44E80818A3021F08091171B6B
:10261000843160F060E070E080911E1B90911F1B80
:10262000F8D71092171B10927E1A05C08091171BC5
:102630008F5F8093171BFF91EF91BF91AF919F9197
:102640008F917F916F915F914F913F912F910F905B
:102650000BBE0F900FBE0F901F90189587B1806A28
:1026600087B9E1E0F1E080818068808381B1846195
:1026700081B96D9AE2E0F1E080818F7D8083779867
:1026800082B18B7E82B988B18F7588B98AB18AB9D7
:102690008BB18C608BB96C988DB38DBBE9E6F0E0A3
:1026A0008081806F8083EAE6F0E0808181608083B2
:1026B0008CE18CBB8DB38C618DBB84B5806A84BD8D
:1026C00084B5836084BD85B585BD85B5856085BDD0
:1026D000279A9D9A089588BD459A479885E0FB0101
:1026E0008083089587BD129A149882E0FB0180834D
:1026F000089588BD4598479A87E0FB018083089537
:1027000087BD1298149A84E0FB01808308958FEFAF
:1027100088BD4598479808958FEF87BD1298149803
:1027200008958F929F92AF92BF92CF92DF92EF92D5
:10273000FF920F931F93CF93DF93C62FD42F882E32
:10274000912CF4013197E830F10508F07CC088271E
:10275000EE58FF4F8F4F0C94002E021713072CF4E6
:10276000D6DFB6018D2FBEDF70C0201731072CF4E5
:10277000D3DFB7018C2FAFDF68C0B7018C2FABDF81
:10278000B6018D2FAFDF61C0201731072CF4BFDFFA
:10279000B6018D2FB5DF59C0021713072CF4BCDF2B
:1027A000B7018C2FA6DF51C0B7018C2FA2DFB60175
:1027B0008D2FA6DF4AC01195019511092017310709
:1027C0002CF4AADFB7018C2F86DF3FC00217130756
:1027D0002CF49DDFB6018D2F93DF37C0B7018C2F0E
:1027E0007ADFB6018D2F8CDF30C03195219531090C
:1027F000021713072CF48BDFB6018D2F73DF25C072
:10280000201731072CF488DFB7018C2F72DF1DC031
:10281000B7018C2F6EDFB6018D2F64DF16C0B601B5
:10282000842F60DF74DF11C0B7018C2F54DF74DF99
:102830000CC0B601842F64DF6ADF07C0B7018C2F9C
:1028400058DF6ADF02C063DF67DFDF91CF911F913E
:102850000F91FF90EF90DF90CF90BF90AF909F903F
:102860008F900895853019F0873051F0089546957E
:10287000FB0180819181840F911D91838083089554
:102880004695FB0180819181841B9109918380830E
:102890000895823019F0843051F008954695FB0177
:1028A00080819181840F911D918380830895469545
:1028B000FB0180819181841B91099183808308951C
:1028C00031E1FC013083319722E220833197A3E389
:1028D000A08331976083319770833197108231974D
:1028E0001082319760E860833197108231971082AF
:1028F00031971082319762E06083319763E06083A3
:10290000319764E06083319765E06083319766E0DA
:102910006083319767E06083319768E06083319727
:1029200069E06083319760E160833197308331974C
:1029300032E13083319733E13083319734E13083B2
:10294000319735E13083319736E13083319737E184
:102950003083319738E13083319739E130833197D3
:1029600030E23083319731E23083319720833197E1
:1029700023E220833197408331975083319726E2B9
:102980002083319727E22083319728E220833197F3
:1029900029E22083319720E32083319721E32083AC
:1029A0008997089588EE93E09093371B8093361BA8
:1029B0009093391B8093381B1092990089EF809374
:1029C00098008BE080939100E1E7F0E080818260E5
:1029D0008083A091F51AB091F61ACD91CDBFDD910B
:1029E000DEBFFF91EF91DF91CF91BF91AF919F91AA
:1029F0008F917F916F915F914F913F912F911F9197
:102A00000F91FF90EF90DF90CF90BF90AF909F908D
:102A10008F907F906F905F904F903F902F901F907E
:102A20000F900CBE0F900BBE0F900FBE0F9008952D
:102A300081E008950F920FB6F8940F920BB60F92A3
:102A40000CB60F921F9211242F923F924F925F92D9
:102A50006F927F928F929F92AF92BF92CF92DF92AE
:102A6000EF92FF920F931F932F933F934F935F9398
:102A70006F937F938F939F93AF93BF93CF93DF9386
:102A8000EF93FF93A091F51AB091F61A0DB60D923F
:102A90000EB60D920E943B24A091F51AB091F61A41
:102AA000CD91CDBFDD91DEBFFF91EF91DF91CF9151
:102AB000BF91AF919F918F917F916F915F914F9156
:102AC0003F912F911F910F91FF90EF90DF90CF904A
:102AD000BF90AF909F908F907F906F905F904F903E
:102AE0003F902F901F900F900CBE0F900BBE0F9039
:102AF0000FBE0F9008950F920FB6F8940F920BB679
:102B00000F920CB60F921F9211242F923F924F9268
:102B10005F926F927F928F929F92AF92BF92CF926D
:102B2000DF92EF92FF920F931F932F933F934F9358
:102B30005F936F937F938F939F93AF93BF93CF9345
:102B4000DF93EF93FF93A091F51AB091F61A0DB6AB
:102B50000D920EB60D9213BE8091381B9091391BC9
:102B600001979093391B8093381B892B41F48091F6
:102B7000361B9091371B9093391B8093381B0E9412
:102B80007A2381110E943B24A091F51AB091F61A84
:102B9000CD91CDBFDD91DEBFFF91EF91DF91CF9160
:102BA000BF91AF919F918F917F916F915F914F9165
:102BB0003F912F911F910F91FF90EF90DF90CF9059
:102BC000BF90AF909F908F907F906F905F904F904D
:102BD0003F902F901F900F900CBE0F900BBE0F9048
:102BE0000FBE0F90089587DF18950F931F93CF9313
:102BF000DF93082F162F662309F43BC0869FC00180
:102C0000112480960E948F02EC01009721F439C0B4
:102C1000D983C88303C04F96998388830B8F1C8FF9
:102C20000FB6F8940F92488159812C8D30E06B8D4E
:102C3000629FC001639F900D1124BA01680F791F34
:102C40007B836A831A8E5D834C83821B930B840F74
:102C5000951F9F838E838FEF8D8F8E8FCE01089669
:102C60000E94EE05CE0141960E94EE050F900FBE28
:102C700008C08FE190E00E948F02EC01892B09F0DF
:102C8000C7CFCE01DF91CF911F910F9108959F92F1
:102C9000AF92BF92CF92DF92EF92FF920F931F936A
:102CA000CF93DF9300D01F921F92CDB7DEB78FE195
:102CB00090E00E948F028C01009709F458C1FC013A
:102CC0001382128211821082158214821782168258
:102CD000128E81E0838F148E8FEF858F868F78011F
:102CE000F8E0EF0EF11CC7010E94EE05680181E1DA
:102CF000C80ED11CC6010E94EE051D821C82A12CAB
:102D000099249394BB24BA940FB6F8940F92F801C7
:102D1000928D838D9817F0F480819181892B09F031
:102D20001DC1828193810E941326F80113821282B1
:102D3000928D9F5F928F9189992339F0C6010E94ED
:102D40001F25813021F476DE02C0811173DE0F90E1
:102D50000FBE0DC18C819D81892B19F40F900FBE80
:102D600006C1A11005C0CE0101960E946725A92CBD
:102D70000F900FBE0E942F220FB6F8940F92F80109
:102D8000858D8F3F09F4158EF801868D8F3F09F4EC
:102D9000168E0F900FBEBE016C5F7F4FCE01019665
:102DA0000E947225811196C00FB6F8940F92F80117
:102DB000928D838D0F900FBE98134AC06C817D81D8
:102DC000C7010E94C3240FB6F8940F92F801868DB4
:102DD0001816ACF48189811105C011C0F8018189F0
:102DE000882369F0C6010E941F2581110E94AD252C
:102DF000F801868D8150868F868D18167CF3F80138
:102E0000B68E0F900FBE0FB6F8940F92858D1816E0
:102E1000ACF48085811105C011C0F801808588233C
:102E200069F0C7010E941F2581110E94AD25F8019C
:102E3000858D8150858F858D18167CF3F801B58EB0
:102E40000F900FBE0E94352281115ECFF3DD5CCF63
:102E50000FB6F8940F92F801868D1816ACF481899C
:102E6000811105C011C0F8018189882369F0C6016C
:102E70000E941F2581110E94AD25F801968D915069
:102E8000968F868D18167CF3F801B68E0F900FBEC4
:102E90000FB6F8940F92858D1816ACF480858111C9
:102EA00005C011C0F8018085882369F0C7010E9420
:102EB0001F2581110E94AD25F801958D9150958FA8
:102EC000858D18167CF3F801B58E0F900FBE0E9409
:102ED00035221ACF0FB6F8940F92F801868D181686
:102EE000ACF48189811105C011C0F8018189882362
:102EF00069F0C6010E941F2581110E94AD25F801CD
:102F0000868D8150868F868D18167CF38FEFF801A1
:102F1000868F0F900FBE0FB6F8940F92858D1816FE
:102F2000ACF48085811105C011C0F801808588232B
:102F300069F0C7010E941F2581110E94AD25F8018B
:102F4000858D8150858F858D18167CF38FEFF80164
:102F5000858F0F900FBE0E94352209C0F801828D27
:102F60008F5F828F8189882309F4F1CEE7CEC80173
:102F70000F900F900F900F900F90DF91CF911F91B6
:102F80000F91FF90EF90DF90CF90BF90AF909F9008
:102F900008956F927F928F929F92AF92BF92CF923D
:102FA000DF92EF92FF920F931F93CF93DF9300D0A6
:102FB0001F921F92CDB7DEB78C015B015D834C83FE
:102FC000722E812C6624639499249A947C0188E063
:102FD000E80EF11C6801E1E1CE0ED11C0FB6F894A9
:102FE0000F92F801928D838D981720F0F2E07F12F6
:102FF0006EC07DC1F801448D411115C0F80180817A
:103000009181892B09F079C1828193810E941326D5
:10301000F80113821282928D9F5F928F918999237A
:1030200009F44FC046C071101AC050E0B501F80154
:10303000848195810E942E2FF801248D84819581B1
:10304000820F911D95838483228133818217930798
:1030500008F453C180819181958384834EC150E0EF
:10306000B501F801868197810E942E2FF801848D89
:1030700090E091958195910926813781280F391F1C
:1030800037832683408151812417350730F422810C
:103090003381820F931F97838683F2E07F122DC1C5
:1030A000F801828D882309F428C1828D8150828F96
:1030B00024C1C80141960E941F25813021F4BADC49
:1030C00002C08111B7DC0F900FBE81E01FC18C815F
:1030D0009D81892B21F40F900FBE80E017C18110D4
:1030E00005C0CE0101960E946725862C0F900FBE69
:1030F0000E942F220FB6F8940F92F801858D8F3F12
:1031000009F4158EF801868D8F3F09F4168E0F9005
:103110000FBEBE016C5F7F4FCE0101960E947225EB
:10312000811196C00FB6F8940F92F801928D838D9D
:103130000F900FBE98134AC06C817D81C7010E9419
:10314000C3240FB6F8940F92F801868D1816ACF4CC
:103150008189811105C011C0F8018189882369F036
:10316000C6010E941F2581110E94AD25F801868DA0
:103170008150868F868D18167CF3F801968E0F90FD
:103180000FBE0FB6F8940F92858D1816ACF480859B
:10319000811105C011C0F8018085882369F0C7013D
:1031A0000E941F2581110E94AD25F801858D815057
:1031B000858F858D18167CF3F801958E0F900FBEC4
:1031C0000E94352281110ACF35DC08CF0FB6F89462
:1031D0000F92F801868D1816ACF48189811105C013
:1031E00011C0F8018189882369F0C6010E941F255A
:1031F00081110E94AD25F801868D8150868F868DC4
:1032000018167CF3F801968E0F900FBE0FB6F89447
:103210000F92858D1816ACF48085811105C011C000
:10322000F8018085882369F0C7010E941F2581115C
:103230000E94AD25F801958D9150958F858D1816BA
:103240007CF3F801958E0F900FBE0E943522C6CEFA
:103250000FB6F8940F92F801868D1816D4F4818970
:10326000811106C016C0F8019189911105C011C0E5
:103270007801F1E1EF0EF11CC7010E941F258111B9
:103280000E94AD25F801968D9150968F968D191656
:1032900054F38FEFF801868F0F900FBE0FB6F8949E
:1032A0000F92858D1816D4F48085811106C016C042
:1032B000F8019085911105C011C07801F8E0EF0E7A
:1032C000F11CC7010E941F2581110E94AD25F80144
:1032D000958D9150958F958D191654F38FEFF801B8
:1032E000858F0F900FBE0E94352280E00FC0F8013D
:1032F000448D442309F482CEB2CEF801828D8F5FD3
:10330000828F8189882309F4DECED3CE0F900F906F
:103310000F900F900F90DF91CF911F910F91FF9021
:10332000EF90DF90CF90BF90AF909F908F907F9065
:103330006F9008959F92AF92BF92CF92DF92EF92DB
:10334000FF920F931F93CF93DF9300D01F921F9292
:10335000CDB7DEB78C017D836C83A12C9924939427
:10336000BB24BA947C0188E0E80EF11C6801E1E11D
:10337000CE0ED11C0FB6F8940F92F801928D838D6A
:10338000981700F580819181892B09F028C18281ED
:1033900093810E941326F80113821282928D9F5FFF
:1033A000928F9189992341F0C80141960E941F256F
:1033B000813021F43FDB02C081113CDB0F900FBE56
:1033C00081E016C18C819D81892B21F40F900FBE65
:1033D00080E00EC1A11005C0CE0101960E946725B4
:1033E000A92C0F900FBE0E942F220FB6F8940F92B7
:1033F000F801858D8F3F09F4158EF801868D8F3F7A
:1034000009F4168E0F900FBEBE016C5F7F4FCE0188
:1034100001960E947225811194C00FB6F8940F9204
:10342000F801928D838D0F900FBE981349C06C8167
:103430007D81C7010E94C3240FB6F8940F92F80152
:10344000868D1816ACF48189811105C011C0F80170
:103450008189882369F0C6010E941F2581110E947D
:10346000AD25F801868D8150868F868D18167CF3E8
:10347000F801B68E0F900FBE0FB6F8940F92858D9F
:103480001816ACF48085811105C011C0F801808543
:10349000882369F0C7010E941F2581110E94AD2574
:1034A000F801858D8150858F858D18167CF3F80184
:1034B000B58E0F900FBED9D781115CCFBBDA5ACF32
:1034C0000FB6F8940F92F801868D1816ACF4818926
:1034D000811105C011C0F8018189882369F0C601F6
:1034E0000E941F2581110E94AD25F801968D9150F3
:1034F000968F868D18167CF3F801B68E0F900FBE4E
:103500000FB6F8940F92858D1816ACF48085811152
:1035100005C011C0F8018085882369F0C7010E94A9
:103520001F2581110E94AD25F801958D9150958F31
:10353000858D18167CF3F801B58E0F900FBE95D7C8
:1035400019CF0FB6F8940F92F801868D1816D4F49F
:103550008189811106C016C0F8019189911105C0B9
:1035600011C07801F1E1EF0EF11CC7010E941F2587
:1035700081110E94AD25F801968D9150968F968D00
:10358000191654F38FEFF801868F0F900FBE0FB608
:10359000F8940F92858D1816D4F48085811106C099
:1035A00016C0F8019085911105C011C07801F8E0AE
:1035B000EF0EF11CC7010E941F2581110E94AD254D
:1035C000F801958D9150958F958D191654F38FEFC5
:1035D000F801858F0F900FBE48D780E009C0F80131
:1035E000828D8F5F828F8189882309F4E7CEDCCEBC
:1035F0000F900F900F900F900F90DF91CF911F9130
:103600000F91FF90EF90DF90CF90BF90AF909F9081
:103610000895CF93DF93FC01928D838D9817D0F49A
:10362000828D8F5F828F868D8F3F79F48189882389
:1036300099F0EB01CF0141960E941F25882371F07C
:10364000209771F081E088830CC0868D8F5F868F14
:1036500081E007C080E005C081E003C081E001C0D7
:1036600081E0DF91CF9108956F927F928F929F9228
:10367000AF92BF92CF92DF92EF92FF920F931F9380
:10368000CF93DF9300D01F921F92CDB7DEB78C018E
:103690005B015D834C83622E812C77247394992483
:1036A0009A946C0188E0C80ED11C7801E1E1EE0E1D
:1036B000F11C0FB6F8940F92F801828D882309F45B
:1036C00045C0E680F780448D4423A9F050E0C7014F
:1036D000840F951F978386832281338182179307F6
:1036E00020F08081918197838683F80166817781BC
:1036F000C5010E942E2F611019C0F801828D8150E2
:10370000828F80819181892B29F40E945326F801B0
:1037100093838283F80180858823A1F0C8010896ED
:103720000E941F25813071F485D90CC0F801F78201
:10373000E6828189882331F0C80141960E941F25C5
:10374000811178D90F900FBE81E017C18C819D81C6
:10375000892B21F40F900FBE80E00FC1811005C0AE
:10376000CE0101960E946725872C0F900FBE77D659
:103770000FB6F8940F92F801858D8F3F09F4158EDE
:10378000F801868D8F3F09F4168E0F900FBEBE0193
:103790006C5F7F4FCE0101960E9472258111A0C0FF
:1037A0000FB6F8940F92F801828D0F900FBE811121
:1037B00056C080819181892B49F40FB6F8940F92FD
:1037C000828193810E94B1250F900FBE6C817D8113
:1037D000C7010E94C3240FB6F8940F92F801868D9A
:1037E0001816ACF48189811105C011C0F8018189D6
:1037F000882369F0C7010E941F2581110E94AD2511
:10380000F801868D8150868F868D18167CF3F8011D
:10381000968E0F900FBE0FB6F8940F92858D1816E6
:10382000ACF48085811105C011C0F8018085882322
:1038300069F0C6010E941F2581110E94AD25F80183
:10384000858D8150858F858D18167CF3F801958EB6
:103850000F900FBE0AD681112CCFECD82ACF0FB60D
:10386000F8940F92F801868D1816ACF481898111B5
:1038700005C011C0F8018189882369F0C7010E9441
:103880001F2581110E94AD25F801868D8150868FFC
:10389000868D18167CF3F801968E0F900FBE0FB62A
:1038A000F8940F92858D1816ACF48085811105C0AF
:1038B00011C0F8018085882369F0C6010E941F2588
:1038C00081110E94AD25F801958D9150958F858DC0
:1038D00018167CF3F801958E0F900FBEC6D5E9CE71
:1038E0000FB6F8940F92F801868D1816D4F48189DA
:1038F000811106C016C0F8019189911105C011C04F
:103900007801F1E1EF0EF11CC7010E941F25811122
:103910000E94AD25F801968D9150968F968D1916BF
:1039200054F38FEFF801868F0F900FBE0FB6F89407
:103930000F92858D1816D4F48085811106C016C0AB
:10394000F8019085911105C011C07801F8E0EF0EE3
:10395000F11CC7010E941F2581110E94AD25F801AD
:10396000958D9150958F958D191654F38FEFF80121
:10397000858F0F900FBE79D580E00F900F900F903C
:103980000F900F90DF91CF911F910F91FF90EF90CB
:10399000DF90CF90BF90AF909F908F907F906F906F
:1039A00008958A3508F08AE5E82FF0E0EE0FFF1F52
:1039B000EE5BF84F8081918190938900809388001D
:1039C0000895A0E8B0E09C9190689C93E1E8F0E055
:1039D0009081986190839C9192609C939081926079
:1039E00090832FE33CE93093870020938600259A4B
:1039F000D8CF089584B1876084B923988CB581604D
:103A00008CBD8CB58C658CBD8CB58F7D8CBD0895BF
:103A10008EBD00000DB407FEFDCF8EB508954F9208
:103A20005F926F927F928F929F92AF92BF92CF924E
:103A3000DF92EF92FF920F931F93CF93DF934C018E
:103A4000EB015A012901C114D10439F4CA010E94C1
:103A50008F026C01892B09F4E4C088E290E00E9497
:103A60008F023C01009779F0FC01D08EC78AF1E00B
:103A7000AF1AB108CA0CDB1C8881F301818F8881E1
:103A8000811105C014C0C6010E94C402CAC0D3017E
:103A90005A96FE0131969E01285F3F4FEF018191BA
:103AA0008D938881882319F0E217F307B9F7F301A2
:103AB00010A2102F063008F015E0F301168B11A3A9
:103AC00012A2E3012296CE010E94FC05C3010C96CE
:103AD0000E94FC05F3017186608686E090E0811B00
:103AE000910995878487738A628A13A214A215A20A
:103AF00016A217A2A201B401C6010E946014F3012C
:103B000091838083E114F10419F0F70171826082DE
:103B10000FB6F8940F928091961A8F5F8093961A41
:103B20008091F51A9091F61A892BD9F57092F61AB0
:103B30006092F51A8091961A813009F041C00F2EDB
:103B4000FFEBEF2EFAE1FF2EF02D0F2EF5EFCF2E2B
:103B5000FAE1DF2EF02DC7010E94EE05F9E0EF0E2D
:103B6000F11CEC14FD04B9F786EB9AE10E94EE0516
:103B70008DEA9AE10E94EE0580EA9AE10E94EE0544
:103B800087E99AE10E94EE0586EB9AE19093AC1AE0
:103B90008093AB1A8DEA9AE19093AA1A8093A91A9E
:103BA0000FC08091921A81110BC0E091F51AF0912B
:103BB000F61A8689081720F07092F61A6092F51AA4
:103BC00080918E1A8F5F80938E1AF301868990916F
:103BD000931A981710F48093931A90E09C01220F87
:103BE000331F220F331F220F331F820F931FBE017B
:103BF0008154954E0E9400060F900FBE8091921A3C
:103C0000882359F0E091F51AF091F61A8689801709
:103C100030F40E941A1581E005C081E003C081E004
:103C200001C08FEFDF91CF911F910F91FF90EF9027
:103C3000DF90CF90BF90AF909F908F907F906F90CC
:103C40005F904F9008959F92AF92BF92CF92DF9274
:103C5000EF92FF920F931F93CF93DF93FC0190910C
:103C60008B1A9F5F90938B1A8091941A9091951A5A
:103C700020813181E901C60FD71F8217930758F4BD
:103C8000C217D30708F06EC1D183C0838C179D077C
:103C900008F042C009C0C217D30708F460C18C17EE
:103CA0009D0708F45CC15EC18091F51A9091F61AE7
:103CB00002960E945206E091F51AF091F61AD3830B
:103CC000C2838091941A9091951AC817D90768F405
:103CD0006091F51A7091F61A8091A91A9091AA1A1A
:103CE0006E5F7F4F0E94210617C06091F51A709198
:103CF000F61A8091AB1A9091AC1A6E5F7F4F0E94BA
:103D0000210680918C1A90918D1AC817D90720F43A
:103D1000D0938D1AC0938C1A0FB6F8940F9280919D
:103D20008B1A815080938B1A80918B1A81110DC14F
:103D30008091961A811133C00BC1D7011596ED9170
:103D4000FC911697C681D781CE010C960E9452062F
:103D50008E010E5F1F4FC8010E9452062E8980916E
:103D6000931A821710F42093931A30E0C901880F38
:103D7000991F880F991F880F991F820F931FB801F1
:103D80008154954E0E940006E091F51AF091F61AC2
:103D90009E898689981758F0D092901A08C00F2EE5
:103DA000F0EAEF2EFAE1FF2EF02DDD24D394F70197
:103DB00080818111C2CF8091911A882309F4BDC0FE
:103DC0008091911A882309F4B8C0912CAA24A39455
:103DD000CC24CA94DC2C80918B1A811198C08091DC
:103DE000941A9091951A01969093951A8093941A2B
:103DF000E090941AF090951AE114F10489F58091FD
:103E0000AB1A9091AC1A2091A91A3091AA1A30934A
:103E1000AC1A2093AB1A9093AA1A8093A91A809196
:103E20008F1A8F5F80938F1AE091AB1AF091AC1AC2
:103E30008081811105C0D0928D1AC0928C1A10C059
:103E4000E091AB1AF091AC1A0580F681E02D068066
:103E5000F781E02D8281938190938D1A80938C1A43
:103E600080918C1A90918D1AE816F90608F47DC09D
:103E7000B92CE091AB1AF091AC1A8081811105C088
:103E8000D0928D1AC0928C1A48C0E091AB1AF09172
:103E9000AC1A0580F681E02DC681D7818A819B818D
:103EA000E816F90628F490938D1A80938C1A35C081
:103EB0008E010E5F1F4FC8010E9452068C899D899A
:103EC000892B21F0CE010C960E9452062E898091FA
:103ED000931A821710F42093931A30E0C901880FC7
:103EE000991F880F991F880F991F820F931FB80180
:103EF0008154954E0E940006E091F51AF091F61A51
:103F00009E898689981708F4B4CFBA2CB2CF8091D5
:103F1000911A8F5F8093911A28C08091901A811115
:103F200001C0B110A092901A8091911A8150809393
:103F3000911A8091911A81114ECF8091901A8130FF
:103F400031F40E941A1581E003C080E001C080E0D6
:103F50000F900FBE81110EC00E941A150BC0D183A5
:103F6000C083A2CED183C083D7CE8091901A8823FC
:103F7000D9F2D8CFDF91CF911F910F91FF90EF90A1
:103F8000DF90CF90BF90AF909F9008959F92AF9297
:103F9000BF92CF92DF92EF92FF920F931F93CF9336
:103FA000DF93009709F463C120918B1A2F5F209350
:103FB0008B1AC091941AD091951AC80FD91F80916D
:103FC000F51A9091F61A02960E945206E091F51A9F
:103FD000F091F61AD383C2838091941A9091951A26
:103FE000C817D90768F46091F51A7091F61A809194
:103FF000A91A9091AA1A6E5F7F4F0E94210617C0DE
:104000006091F51A7091F61A8091AB1A9091AC1AE2
:104010006E5F7F4F0E94210680918C1A90918D1ABD
:10402000C817D90720F4D0938D1AC0938C1A0FB6F5
:10403000F8940F9280918B1A815080938B1A809103
:104040008B1A81110DC18091961A811133C00BC159
:10405000D7011596ED91FC911697C681D781CE01B7
:104060000C960E9452068E010E5F1F4FC8010E94DF
:1040700052062E898091931A821710F42093931A76
:1040800030E0C901880F991F880F991F880F991F69
:10409000820F931FB8018154954E0E940006E09153
:1040A000F51AF091F61A9E898689981758F0D092E1
:1040B000901A08C00F2EF0EAEF2EFAE1FF2EF02D35
:1040C000DD24D394F70180818111C2CF8091911AB0
:1040D000882309F4BDC08091911A882309F4B8C0DF
:1040E000912CAA24A394CC24CA94DC2C80918B1A02
:1040F000811198C08091941A9091951A019690938D
:10410000951A8093941AE090941AF090951AE114FD
:10411000F10489F58091AB1A9091AC1A2091A91AFB
:104120003091AA1A3093AC1A2093AB1A9093AA1A22
:104130008093A91A80918F1A8F5F80938F1AE091D4
:10414000AB1AF091AC1A8081811105C0D0928D1A02
:10415000C0928C1A10C0E091AB1AF091AC1A058095
:10416000F681E02D0680F781E02D82819381909386
:104170008D1A80938C1A80918C1A90918D1AE81662
:10418000F90608F477C0B92CE091AB1AF091AC1A9B
:104190008081811105C0D0928D1AC0928C1A48C0BE
:1041A000E091AB1AF091AC1A0580F681E02DC68142
:1041B000D7818A819B81E816F90628F490938D1A9D
:1041C00080938C1A35C08E010E5F1F4FC8010E946C
:1041D00052068C899D89892B21F0CE010C960E9474
:1041E00052062E898091931A821710F42093931A05
:1041F00030E0C901880F991F880F991F880F991FF8
:10420000820F931FB8018154954E0E940006E091E1
:10421000F51AF091F61A9E898689981708F4B4CF9A
:10422000BA2CB2CF8091911A8F5F8093911A22C0DD
:104230008091901A811101C0B110A092901A8091C2
:10424000911A81508093911A8091911A81114ECFC9
:104250008091901A813031F40E941A1581E003C0D8
:1042600080E001C080E00F900FBE811108C00E9465
:104270001A1505C08091901A882309F3DECFDF91CB
:10428000CF911F910F91FF90EF90DF90CF90BF9053
:10429000AF909F900895CF92DF92EF92FF920F938D
:1042A0001F93CF93DF9385E590E00E948F028C01EE
:1042B000892B09F4CBC088E290E00E948F02EC01C8
:1042C000892B69F0188F0F8B0C5A1F4F89E4898F47
:1042D000E9EFF7E0DE015A9620E038E004C0C801BB
:1042E0000E94C402B3C091919D93992319F0E217E3
:1042F000F307C9F718A21E8A19A21AA27E0182E04A
:10430000E80EF11CC7010E94FC05CE010C960E942C
:10431000FC05D987C88786E090E09D878C87DB8B7A
:10432000CA8B1BA21CA21DA21EA21FA240E050E02D
:1043300061E271E0C8010E946014998388830FB61E
:10434000F8940F928091961A8F5F8093961A8091BD
:10435000F51A9091F61A892BA9F5D093F61AC09305
:10436000F51A8091961A8130E1F50FEB1AE10F2EC4
:10437000F5EFCF2EFAE1DF2EF02DC8010E94EE05F9
:10438000075F1F4F0C151D05C1F786EB9AE10E94D0
:10439000EE058DEA9AE10E94EE0580EA9AE10E941C
:1043A000EE0587E99AE10E94EE0586EB9AE190938B
:1043B000AC1A8093AB1A8DEA9AE19093AA1A809373
:1043C000A91A0FC08091921A81110BC0E091F51AC1
:1043D000F091F61A8689811104C0D093F61AC09321
:1043E000F51A80918E1A8F5F80938E1A2E89809194
:1043F000931A821710F42093931A30E0C901880FA2
:10440000991F880F991F880F991F820F931FB7015B
:104410008154954E0E9400060F900FBE8091921A13
:10442000882321F08091F51A9091F61AF8948FEF75
:104430009FEF90938D1A80938C1A81E08093921A4B
:104440001092951A1092941A0E94D214DF91CF9173
:104450001F910F91FF90EF90DF90CF900895809182
:104460008B1A8F5F80938B1A08959F92AF92BF92A1
:10447000CF92DF92EF92FF920F931F93CF93DF9330
:104480000FB6F8940F9280918B1A815080938B1AFB
:1044900080918B1A81110DC18091961A811133C0C0
:1044A0000BC1D7011596ED91FC911697C681D78166
:1044B000CE010C960E9452068E010E5F1F4FC8015E
:1044C0000E9452062E898091931A821710F420932D
:1044D000931A30E0C901880F991F880F991F880F20
:1044E000991F820F931FB8018154954E0E940006B8
:1044F000E091F51AF091F61A9E898689981758F07E
:10450000D092901A08C00F2EF0EAEF2EFAE1FF2E9B
:10451000F02DDD24D394F70180818111C2CF8091E9
:10452000911A882309F4BDC08091911A882309F457
:10453000B8C0912CAA24A394CC24CA94DC2C8091DA
:104540008B1A811198C08091941A9091951A0196B6
:104550009093951A8093941AE090941AF090951A7B
:10456000E114F10489F58091AB1A9091AC1A209175
:10457000A91A3091AA1A3093AC1A2093AB1A9093CF
:10458000AA1A8093A91A80918F1A8F5F80938F1A2D
:10459000E091AB1AF091AC1A8081811105C0D092E4
:1045A0008D1AC0928C1A10C0E091AB1AF091AC1A1F
:1045B0000580F681E02D0680F781E02D82819381D0
:1045C00090938D1A80938C1A80918C1A90918D1AE9
:1045D000E816F90608F473C0B92CE091AB1AF09113
:1045E000AC1A8081811105C0D0928D1AC0928C1AAC
:1045F00048C0E091AB1AF091AC1A0580F681E02D2D
:10460000C681D7818A819B81E816F90628F49093A8
:104610008D1A80938C1A35C08E010E5F1F4FC80112
:104620000E9452068C899D89892B21F0CE010C961F
:104630000E9452062E898091931A821710F42093BB
:10464000931A30E0C901880F991F880F991F880FAE
:10465000991F820F931FB8018154954E0E94000646
:10466000E091F51AF091F61A9E898689981708F458
:10467000B4CFBA2CB2CF8091911A8F5F8093911AE8
:104680001EC08091901A811101C0B110A092901AA1
:104690008091911A81508093911A8091911A811181
:1046A0004ECF8091901A813031F40E941A1581E02A
:1046B00003C080E001C080E00F900FBE05C0809174
:1046C000901A882329F3E2CFDF91CF911F910F91A8
:1046D000FF90EF90DF90CF90BF90AF909F900895A4
:1046E0000FB6F8940F928091941A9091951A0F90AA
:1046F0000FBE0895CF92DF92EF92FF920F931F9318
:10470000CF93DF9380918B1A81119FC08091941A6F
:104710009091951A01969093951A8093941AE0902F
:10472000941AF090951AE114F10499F58091AB1A5E
:104730009091AC1A2091A91A3091AA1A3093AC1A10
:104740002093AB1A9093AA1A8093A91A80918F1A7A
:104750008F5F80938F1AE091AB1AF091AC1A808131
:10476000811107C08FEF9FEF90938D1A80938C1A61
:1047700010C0E091AB1AF091AC1A0580F681E02DE3
:104780000680F781E02D8281938190938D1A80932A
:104790008C1A80918C1A90918D1AE816F90610F4F3
:1047A000D12C59C0D12CCC24C394E091AB1AF091F8
:1047B000AC1A9081911107C08FEF9FEF90938D1AE3
:1047C00080938C1A48C0E091AB1AF091AC1A058026
:1047D000F681E02DC681D7812A813B81E216F3065E
:1047E00028F430938D1A20938C1A35C08E010E5FF9
:1047F0001F4FC8010E9452068C899D89892B21F088
:10480000CE010C960E9452062E898091931A82172F
:1048100010F42093931A30E0C901880F991F880F74
:10482000991F880F991F820F931FB8018154954ECD
:104830000E940006E091F51AF091F61A9E89868989
:10484000981708F4B2CFDC2CB0CF8091911A8F5F0B
:104850008093911AD12C8091901A882311F0DD2435
:10486000D3948D2DDF91CF911F910F91FF90EF90F9
:10487000DF90CF90089580918B1A882321F081E0FA
:104880008093901A08951092901AA091F51AB09101
:10489000F61AE091F51AF091F61A2D913C9187895C
:1048A000908D8217930760F06091F51A7091F61A57
:1048B0008091F51A9091F61A675E7F4F0E948C11D5
:1048C0008091931A90E0FC01EE0FFF1FEE0FFF1F87
:1048D000EE0FFF1F8E0F9F1FFC01E154F54E8081EC
:1048E000811117C08091931A81508093931A8091FF
:1048F000931A90E0FC01EE0FFF1FEE0FFF1FEE0F6B
:10490000FF1F8E0F9F1FFC01E154F54E808188230D
:1049100049F38091931A90E09C01220F331F220FDC
:10492000331F220F331F280F391FD901A154B54E51
:104930001196ED91FC9112970280F381E02D129671
:10494000FC93EE9311972E53354EE217F30729F49B
:1049500022813381FD0132832183FC01EE0FFF1F91
:10496000EE0FFF1FEE0FFF1F8E0F9F1FFC01E15484
:10497000F54E0180F281E02D868197819093F61AA1
:104980008093F51A0895CF93DF93EB012091F51AE8
:104990003091F61AB901645F7F4F0E942106809121
:1049A000F51A9091F61A02960E945206CF3F8FEFA9
:1049B000D80759F46091F51A7091F61A6E5F7F4F1F
:1049C00087E99AE10E94000637C08091941A90917D
:1049D000951AC80FD91FE091F51AF091F61AD383F2
:1049E000C2838091941A9091951AC817D90768F4D8
:1049F0006091F51A7091F61A8091A91A9091AA1AED
:104A00006E5F7F4F0E94210617C06091F51A70916A
:104A1000F61A8091AB1A9091AC1A6E5F7F4F0E948C
:104A2000210680918C1A90918D1AC817D90720F40D
:104A3000D0938D1AC0938C1ADF91CF9108950F9364
:104A40001F93CF93DF93DC011596ED91FC911697A0
:104A5000C681D7818E01045F1F4FC8010E94520694
:104A600080918B1A81111CC00A501109C8010E9443
:104A700052062E898091931A821710F42093931A6C
:104A800030E0C901880F991F880F991F880F991F5F
:104A9000820F931FB8018154954E0E94000605C0F5
:104AA000B80180EA9AE10E940006E091F51AF091BF
:104AB000F61A9E898689891720F481E08093901ADE
:104AC00001C080E0DF91CF911F910F910895209157
:104AD0008F1AFC0120832091941A3091951A328309
:104AE00021830895FC010FB6F8940F922091941A37
:104AF0003091951ADB018D919C918F3FBFEF9B0701
:104B000021F140918F1A5081541729F0418152812F
:104B100024173507E0F441815281D901A41BB50B5C
:104B2000A817B907B0F4421B530B840F951FDB0184
:104B30008D939C9380918F1A80838091941A909189
:104B4000951A9283818380E005C080E003C081E0F4
:104B500001C081E00F900FBE089581E08093901A0C
:104B600008950F931F93CF93DF93FC01892B09F4D2
:104B700055C02689A091F51AB091F61A56968C91D7
:104B8000281708F04BC084859585992364F0A0917F
:104B9000F51AB091F61A56963C9186E090E0831B88
:104BA00091099587848730E0C901880F991F880F84
:104BB000991F880F991F280F391F2154354E828560
:104BC00093858217930719F58F01EF012296CE0185
:104BD0000E945206E091F51AF091F61A2689F80122
:104BE000268B8091931A821710F42093931A30E049
:104BF000C901880F991F880F991F880F991F820F6D
:104C0000931FBE018154954E0E94000607C0A091DB
:104C1000F51AB091F61A56968C91868BDF91CF914A
:104C20001F910F9108950F931F93CF93DF93FC0172
:104C3000892B79F182A1815082A3268991A129171C
:104C400051F181112AC0EF018F010E5F1F4FC80182
:104C50000E94520629A12E8B46E050E0421B5109CA
:104C60005D874C878091931A821710F42093931AD2
:104C700030E0C901880F991F880F991F880F991F6D
:104C8000820F931FB8018154954E0E94000681E067
:104C900005C080E003C080E001C080E0DF91CF91DB
:104CA0001F910F9108958091F51A9091F61A892B12
:104CB00039F0E091F51AF091F61A82A18F5F82A384
:104CC0008091F51A9091F61A089588E48093B800BF
:104CD0000895ECEBF0E0108294EA908390819923A0
:104CE000ECF79091B900987F9830A1F48093BB00C5
:104CF00084E88093BC00ECEBF0E080818823ECF743
:104D00009091B900987F983139F081E0903429F47E
:104D100080E0089581E0089580E008958093BB00CD
:104D200084E88093BC00ECEBF0E080818823ECF712
:104D30009091B900987F81E0983209F480E008955D
:104D400084EC8093BC00ECEBF0E080818823ECF7EE
:104D50008091BB00089584E88093BC00ECEBF0E008
:104D600080818823ECF78091BB00089584E98093CB
:104D7000BC000895CF9364991BC0C82F20E048EC75
:104D800050E060E070E080911C1B90911D1B0E9420
:104D9000341BE0EDF0E0908195FFFDCFC093D6008D
:104DA00060E070E080911C1B90911D1B0E949A197D
:104DB000CF9108951092D50089E18093D40080EEC0
:104DC0008093D00088E98093D100E2EDF0E086E0A6
:104DD00080838081808380E096E090933D1B809368
:104DE0003C1B0895649907C0E0EDF0E0908195FFC9
:104DF000FDCF8093D6000895CF93DF93EC01888197
:104E0000882329F02196EEDF89918111FCCFDF9173
:104E1000CF9108958DEF97E00C94F92F0895505895
:104E2000BB27AA270ED027C2F0D130F0F5D120F051
:104E300031F49F3F11F41EF4C0C10EF4E095E7FB7E
:104E4000B6C1E92F3AD280F3BA1762077307840715
:104E5000950718F071F49EF552C20EF4E0950B2EF2
:104E6000BA2FA02D0B01B90190010C01CA01A001BC
:104E70001124FF27591B99F0593F50F4503E68F117
:104E80001A16F040A22F232F342F4427585FF3CF58
:104E9000469537952795A795F0405395C9F77EF429
:104EA0001F16BA0B620B730B840BBAF09150A1F072
:104EB000FF0FBB1F661F771F881FC2F70EC0BA0FF8
:104EC000621F731F841F48F4879577956795B79580
:104ED000F7959E3F08F0B3CF9395880F08F0992778
:104EE000EE0F97958795089590D158F080E891E05E
:104EF00009F49EEF91D128F040E851E059F45EEFBB
:104F000009C05BC1FCC1E92FE078D7D168F3092E55
:104F1000052AC1F3261737074807590738F00E2E20
:104F200007F8E02569F0E025E0640AC0EF6307F8C0
:104F3000009407FADB01B9019D01DC01CA01AD0152
:104F4000EF934AD098D10AD05F91552331F02BEDE1
:104F50003FE049E450FD49EC63CF0895DF93DD273E
:104F6000B92FBF7740E85FE31616170648075B07BF
:104F700010F4D92FCFD19F938F937F936F937CD2CF
:104F8000E4EFF0E01DD177D12F913F914F915F91E8
:104F9000D4D1DD2349F09058A2EA2AED3FE049EC54
:104FA0005FE3D0785D274DDFDF9165C1DCD008F489
:104FB00081E0089539D1E3956FC10CD05CC12CD14B
:104FC00040F023D130F021F45F3F19F0F0C05111CF
:104FD00097C1F3C072D198F39923C9F35523B1F364
:104FE000951B550BBB27AA2762177307840738F058
:104FF0009F5F5F4F220F331F441FAA1FA9F333D0B7
:105000000E2E3AF0E0E830D091505040E695001C6A
:10501000CAF729D0FE2F27D0660F771F881FBB1F26
:10502000261737074807AB07B0E809F0BB0B802D00
:10503000BF01FF2793585F4F2AF09E3F510568F04C
:10504000B6C05EC15F3FECF3983EDCF38695779582
:105050006795B795F7959F5FC9F7880F911D96954E
:10506000879597F90895E1E0660F771F881FBB1FAA
:10507000621773078407BA0720F0621B730B840B57
:10508000BA0BEE1F88F7E095089504D06894B1112B
:1050900037C108951AD188F09F5790F0B92F9927FA
:1050A000B751A0F0D1F0660F771F881F991F1AF033
:1050B000BA95C9F712C0B13081F021D1B1E008959D
:1050C0001EC1672F782F8827B85F39F0B93FCCF31E
:1050D000869577956795B395D9F73EF49095809529
:1050E000709561957F4F8F4F9F4F0895E89409C049
:1050F00097FB3EF490958095709561957F4F8F4F0B
:105100009F4F9923A9F0F92F96E9BB279395F69520
:10511000879577956795B795F111F8CFFAF4BB0F9E
:1051200011F460FF1BC06F5F7F4F8F4F9F4F16C002
:10513000882311F096E911C0772321F09EE8872F8C
:10514000762F05C0662371F096E8862F70E060E048
:105150002AF09A95660F771F881FDAF7880F9695C1
:10516000879597F90895990F0008550FAA0BE0E865
:10517000FEEF16161706E807F907C0F01216130619
:10518000E407F50798F0621B730B840B950B39F459
:105190000A2661F0232B242B252B21F408950A26BF
:1051A00009F4A140A6958FEF811D811D089597F9FF
:1051B0009F6780E870E060E008959FEF80EC0895BD
:1051C000DF93CF931F930F93FF92EF92DF927B01B8
:1051D0008C01689405C0DA2EEF01AFD0FE01E8948F
:1051E000A5912591359145915591AEF3EF0129DEB9
:1051F000FE019701A801DA9479F7DF90EF90FF9014
:105200000F911F91CF91DF91089500240A941616F3
:10521000170618060906089500240A9412161306A4
:10522000140605060895C9CF50D0E8F3E894E0E0ED
:10523000BB279F57F0F02AED3FE049EC06C0EE0F88
:10524000BB0F661F771F881F28F0B23A62077307EB
:10525000840728F0B25A620B730B840BE3959A957E
:1052600072F7803830F49A95BB0F661F771F881F3E
:10527000D2F7904806C1092E0394000C11F488233C
:1052800052F0BB0F40F4BF2B11F460FF04C06F5FFE
:105290007F4F8F4F9F4F0895EF93E0FF06C0A2EA24
:1052A0002AED3FE049EC5FEBCCDDE5DF0F900394A6
:1052B00001FC9058E1E2F1E0F7C057FD9058440F2F
:1052C000551F59F05F3F71F04795880F97FB991F65
:1052D00061F09F3F79F08795089512161306140622
:1052E000551FF2CF4695F1DF08C0161617061806AF
:1052F000991FF1CF86957105610508940895E8948A
:10530000BB2766277727CB0197F908952CDF08F490
:105310008FEF08959B01AC0160E070E080E89FE3AF
:105320004CCE0BD0A8CF71DF28F076DF18F0952394
:1053300009F03DCF42CF1124E3CFBFDFA0F3959F0B
:10534000D1F3950F50E0551F629FF001729FBB276C
:10535000F00DB11D639FAA27F00DB11DAA1F649F18
:105360006627B00DA11D661F829F2227B00DA11DCB
:10537000621F739FB00DA11D621F839FA00D611D51
:10538000221F749F3327A00D611D231F849F600D72
:10539000211D822F762F6A2F11249F5750408AF0AB
:1053A000E1F088234AF0EE0FFF1FBB1F661F771F37
:1053B000881F91505040A9F79E3F510570F0F7CEDD
:1053C0009FCF5F3FECF3983EDCF38695779567952A
:1053D000B795F795E7959F5FC1F7FE2B880F911D55
:1053E0009695879597F908959F931EDF0F9007FC78
:1053F000EE5F52CF11F40EF4E0CE41C066DFD0F381
:105400009923D9F3CEF39F57550B87FF46D000243D
:10541000A0E640EA900180585695979528F4805C64
:10542000660F771F881F20F026173707480730F4CC
:10543000621B730B840B202931294A2BA6951794E4
:105440000794202531254A2758F7660F771F881FB4
:1054500020F026173707480730F4620B730B840BD4
:10546000200D311D411DA09581F7B901842F915860
:10547000880F9695879508959B01AC0152CF9F3F69
:1054800031F0915020F4879577956795B795880FFF
:10549000911D9695879597F9089591505040660F04
:1054A000771F881FD2F708959F938F937F936F93F1
:1054B000FF93EF939B01AC0134DFEF91FF9180DE0E
:1054C0002F913F914F915F912CCF2F923F924F920E
:1054D0005F926F927F928F929F92AF92BF92CF9284
:1054E000DF92EF92FF920F931F93CF93DF93CDB78D
:1054F000DEB763970FB6F894DEBF0FBECDBF6C0169
:105500004B012A01FC0117821682838181FF29C386
:10551000AE014F5F5F4F3A01F6019381F40193FDB5
:10552000859193FF81914F01882309F416C3853239
:1055300039F493FD859193FF81914F01853231F4C8
:10554000B60190E00BD552012501E6CF10E0F12C19
:1055500020E02032A0F48B3269F030F4803259F030
:10556000833269F420612CC08D3239F0803339F4F4
:10557000216026C02260246023C0286021C027FD4E
:1055800027C030ED380F3A3078F426FF06C0FAE035
:105590001F9F300D1124132F13C04AE0F49E300DCD
:1055A0001124F32E20620CC08E3221F426FDD5C2C8
:1055B000206406C08C3611F4206802C0883641F49D
:1055C000F40193FD859193FF81914F018111C1CF2A
:1055D0009BEB980F933018F42061805E06C09BE926
:1055E000980F933008F064C12F7E26FF16E02F73CA
:1055F000322E853619F42064322E08C0863621F406
:10560000F22FF0683F2E02C01111115037FE07C073
:105610001C3350F4EE24E394E10E27E00BC0183065
:1056200038F027E017E005C027E04CE3E42E02C085
:10563000212FE12C520144E0A40EB11CF201608143
:105640007181828193810E2DA30122D32C010981C6
:1056500000FF02C003FF07C031FC08C032FE09C0D2
:1056600030E2232E07C02DE2222E04C09BE2292E19
:1056700001C0212C802F8C7019F0211051C28DC2D5
:1056800037FE0FC0E40C04FF04C08A81813309F4A3
:10569000EA941E1474F5F8E0FE1578F588E0E82E1B
:1056A0002CC036FC2AC0812F90E0841595059CF013
:1056B0002CEF42162FEF520674F0432D4068342E23
:1056C0000AC0E2E0F0E0EC0FFD1FE10FF11D808168
:1056D000803319F411501111F4CF37FE0EC0EE24AF
:1056E000E394E10E812F90E0481659062CF414192A
:1056F00004C0EE24E39401C010E037FE06C0141489
:10570000150434F4C201019605C085E090E002C0A2
:1057100081E090E021100196112331F0212F30E03B
:105720002F5F3F4F820F931F2F2D30E0821793077B
:1057300014F4F81A01C0F12C832D897041F4FF2074
:1057400031F0B60180E290E009D4FA94F8CF22203B
:1057500021F0B601822D90E001D433FC08C0FF2077
:1057600031F0B60180E390E0F9D3FA94F8CF37FE38
:1057700058C0942D852D57FE02C090E080E0292E60
:10578000382E20E030E0A2014E1951095D874C8788
:10579000A201421953095F874E87612F70E04427A9
:1057A0005527461B570B598B488B5FEF251635063F
:1057B00041F4B6018EE290E02A8B3B8BCFD33B893C
:1057C0002A89421453046CF04C855D8542155305BB
:1057D00044F4EE85FF85E20FF31FE60DF71D81818E
:1057E00001C080E351E0251A31082F5F3F4F4889FF
:1057F00059892416350644F0B60190E02A8B3B8B7C
:10580000ADD32A893B89D1CF2414350439F49A8148
:10581000963318F4953311F404FF81E3B60190E058
:1058200045C08A81813309F00F7EB60190E096D39E
:10583000111105C034FC16C085E690E015C0B60114
:105840008EE290E08BD382E0EE24E394E80EF30145
:10585000E80FF11D8081B60190E080D311508E2DAC
:1058600099F7E8CF85E490E0B60178D357FC05C0FE
:105870004114510439F404FF05C051944194510876
:105880008DE201C08BE2B60190E068D380E39AE03C
:10589000491651042CF08F5F5AE0451A5108F7CF92
:1058A000B60190E05BD3B601C201C09657D34CC19C
:1058B000833631F0833779F0833509F054C020C046
:1058C0005201E2E0AE0EB11CF2018081898301E059
:1058D00010E0230113C05201F2E0AF0EB11CF2013F
:1058E0004080518026FF03C0612F70E002C06FEF3F
:1058F0007FEFC2012A8BBBD28C012A892F7714C07B
:105900005201F2E0AF0EB11CF2014080518026FF3F
:1059100003C0612F70E002C06FEF7FEFC2012A8BDE
:105920008FD28C012A892068322E23FD18C08F2D3A
:1059300090E00817190798F4B60180E290E00ED3C2
:10594000FA94F5CFF20137FC859137FE81912F0152
:10595000B60190E003D3F110FA940150110901153A
:10596000110581F7F1C0843611F0893651F55201E5
:1059700027FF09C0F4E0AF0EB11CF2016081718114
:10598000828193810AC0F2E0AF0EB11CF201608106
:105990007181072E000C880B990B2F76322E97FF02
:1059A00009C090958095709561957F4F8F4F9F4F5F
:1059B0002068322E2AE030E0A3014BD3E82EE6180F
:1059C0003EC0022F853721F40F7E2AE030E01DC053
:1059D000097F8F3691F018F4883559F0BEC08037B2
:1059E00019F0883711F0B9C0006104FF09C00460E4
:1059F00007C024FF08C0066006C028E030E005C0EC
:105A000020E130E002C020E132E0520107FF09C08E
:105A1000F4E0AF0EB11CF20160817181828193814B
:105A200008C0F2E0AF0EB11CF2016081718180E02C
:105A300090E0A3010ED3E82EE6180F77302E36FE45
:105A40000BC0332D3E7FE11650F434FE0AC032FC09
:105A500008C0332D3E7E05C00E2D332D03C00E2D04
:105A600001C0012F34FF0CC0FE01EE0DF11D80813D
:105A7000803311F4397E08C032FF05C00E5F04C0C8
:105A8000832F867809F00F5F33FD12C030FF06C008
:105A90001E2D0F1518F41F0D101B0F2D0F1560F480
:105AA000B60180E290E03B8B59D20F5F3B89F6CF85
:105AB0000F1510F4F01A01C0F12C34FF11C0B6011B
:105AC00080E390E03B8B4AD23B8932FF16C031FD28
:105AD00003C088E790E002C088E590E0B6010CC002
